:060000000A128A110C280F
:10000800FE00030EF0000A08F1000A128A110C2CF7
:100018000A128A110F28FA01FB0183120313B00197
:1000280083010A128A11F22A0A128A1103240A1277
:100038008A11D030F2000030F3000A128A11E72347
:100048000A128A110030F200F3000A128A11E7231B
:100058000A128A110A128A11F1230A128A11D1305E
:10006800F2000030F3000A128A11E7230A128A11FB
:100078000030F200F3000A128A1120230A128A11B2
:100088007208FB000A128A11FA230A128A110D302B
:10009800F900FB30F800F80B4F28F90B4F285428CB
:1000A8000A128A1103240A128A11D030F200003091
:1000B800F3000A128A11E7230A128A110130F200AA
:1000C8000030F3000A128A11E7230A128A110A1271
:1000D8008A11F1230A128A11D130F2000030F3009C
:1000E8000A128A11E7230A128A110030F200F3007B
:1000F8000A128A1120230A128A117208FA000A12B7
:100108008A11FA230A128A110D30F900FB30F8001F
:10011800F80B8C28F90B8C2891280A128A110324D1
:100128000A128A11D030F2000030F3000A128A1144
:10013800E7230A128A110230F2000030F3000A1293
:100148008A11E7230A128A110A128A11F1230A1264
:100158008A11D130F2000030F3000A128A11E72325
:100168000A128A110030F200F3000A128A112023C1
:100178000A128A11720883120313B0000A128A1134
:10018800FA230A128A110D30F900FB30F800F80B37
:10019800CB28F90BCB28D0280800F601F60A013045
:1001A8000A128A1109220A128A1101300A128A11C6
:1001B8004E230A128A11F601F60A02300A128A112F
:1001C80009220A128A11831203133008A40004308A
:1001D8000310A40CFF3E031DEC2824080F39303E01
:1001E8000A128A118D220A128A1183120313300807
:1001F8000F39303E0A128A118D220A128A113A30BA
:100208000A128A118D220A128A117A08831203139C
:10021800A40004300310A40CFF3E031D0E2924087B
:100228000F39303E0A128A118D220A128A117A0871
:100238000F39303E0A128A118D220A128A113A3079
:100248000A128A118D220A128A117B08831203135B
:10025800A40004300310A40CFF3E031D2E2924081B
:100268000F39303E0A128A118D220A128A117B0830
:100278000F39303E0A128A118D220A128A1108009B
:10028800003083120313A4000030A3000030A20042
:100298000030A10075087404730472040319552909
:1002A8005629A329A501A50A66290130A000031033
:1002B800F20DF30DF40DF50DA00B5B290130FF00D5
:1002C8007F08A507F51F69296A2959290130A00067
:1002D8000310A10DA20DA30DA40DA00B6C29750888
:1002E8007902031D812974087802031D8129730886
:1002F8007702031D812972087602031C8429852947
:1003080094297208F6027308031C730FF702740825
:10031800031C740FF8027508031C750FF9022114E9
:1003280001300310F50CF40CF30CF20CFF3E031D26
:1003380095290130A502031DA229A3296A292408A9
:10034800F5002308F4002208F3002108F200080051
:1003580000300A128A1173230A128A113430F70006
:10036800F130F600F60BB629F70BB629BB29033096
:100378000A128A11B5230A128A110D30F700FB30D0
:10038800F600F60BC529F70BC529CA2903300A124E
:100398008A11B5230A128A111D30F7009130F60030
:1003A800F60BD429F70BD42903300A128A11B52386
:1003B8000A128A1102300A128A11B5230A128A1106
:1003C80002300A128A11B5230A128A1108300A1259
:1003D8008A11B5230A128A1100300A128A11B5232C
:1003E8000A128A110C300A128A11B5230A128A11CC
:1003F80000300A128A11B5230A128A1106300A122D
:100408008A11B5230A128A11080083120313A00067
:100418002003031D102A112A302A76087F3EA300E4
:100428002308F70004300310F70CFF3E031D172ABA
:100438007708A10023080F39A20021080A128A119F
:10044800B5230A128A118312031322080A128A1189
:10045800B5230A128A11542A02302006031D352AB0
:10046800362A542A7608BF3EA3002308F700043032
:100478000310F70CFF3E031D3C2A7708A100230850
:100488000F39A20021080A128A11B5230A128A110B
:100498008312031322080A128A11B5230A128A1139
:1004A8000800283083120313940083160313910164
:1004B800831203132608AA002708AB002808AC00FB
:1004C8002908AD0002300310AA0DAB0DAC0DAD0D1F
:1004D800FF3E031D672A2D08F5002C08F4002B08A1
:1004E800F3002A08F2000030F9007A30F8001230E0
:1004F800F7000030F6000A128A1144210A128A1104
:100508007208FF3E8316031393009401871507169C
:100518000800F60076080F39F4007608F039F5007F
:100528008312031308157508F30004300310F30C45
:10053800FF3E031D9A2A73080A128A1173230A12AE
:100548008A118312031388151A30F300F30BAA2AB1
:10055800000083120313881174080A128A11732386
:100568000A128A118312031388151A30F300F30B49
:10057800BB2A00008312031388110800831603178F
:1005880088018901831603138501831203138501EA
:10059800831603138601831203138601831603133C
:1005A80088018312031388017030831603138F04A4
:1005B8000F14003083120313A9000130A8008630FD
:1005C800A700A030A6000A128A1155220A128A1121
:1005D8000A128A11AC210A128A1108000A128A1119
:1005E800C2220A128A110A128A1195230A128A1142
:1005F8001A3083120313AF00F730AE00AE0B022B94
:10060800AF0B022B072B0A128A1118200A128A1123
:100618001A3083120313AF00F730AE00AE0B122B63
:10062800AF0B122B172B0A128A11D1200A128A112A
:10063800F72A0A128A110C280A128A11CF230A12E1
:100648008A118316031391150A128A11CF230A12ED
:100658008A11831203131308F400F5017408F600D5
:100668007508F7000A128A11CF230A128A11720339
:100678007304031D402B412B452B83160313911242
:10068800482B83160313911611167708F300760882
:10069800F2000800F700F801F901652B78087707E0
:1006A80084000A128A11DC230A128A110A128A119A
:1006B8008D220A128A110130F8070318F90A00304E
:1006C800F9077808770784000A128A11DC230A12CE
:1006D8008A11003A031D712B722B522B0800F2006D
:1006E800721C772B782B7C2B8312031308167F2B15
:1006F800831203130812F21C822B832B852B881676
:10070800862B8812721D892B8A2B8C2B08178D2B10
:100718000813F21D902B912B932B8817942B881379
:1007280008000A128A1103240A128A115130F200B1
:100738000030F3000A128A11E7230A128A110030E6
:10074800F200F3000A128A1120230A128A11720891
:100758008312031385000A128A11FA230A128A11D6
:100768000800F50083120313081175080A128A118C
:1007780073230A128A118312031388150B30F400AD
:100788006230F300F30BC62BF40BC62B0000831268
:10079800031388110800831603131419D42BD52BBF
:1007A800CF2B11081F39031DDA2BDB2BCF2B0800A9
:1007B80003308A000408840A8207003454346934F8
:1007C8006D34653400340A128A11CF230A128A1153
:1007D800720883120313930008000A128A11CF23A8
:1007E8000A128A1183160313911408000A128A1137
:1007F800CF230A128A1183160313111508000A124F
:100808008A11CF230A128A118316031311140800C0
:0E08180071088A00700E8300FE0E7E0E09002D
:04400E00D420FF3F7C
:00000001FF
