:060000000A128A1110280B
:10000800FE00030EF2000408F3000A08F4007F085B
:10001800F5000A128A11C22C0A128A111328F60155
:10002800F701F80183120313B801B901BA01BB0142
:10003800BC01BD01BE01BF01C001C101C201C301B4
:1000480083010A128A118E2F780A031D2C282D2865
:1000580030280630F800372807307802031C352886
:1000680036283728F8015A30831203133F02031C3D
:100078003E283F284128BF014E280F303F05A200E7
:100088000A302202031C49284A284E283F08F03922
:10009800103EBF005A303E02031C532854285628ED
:1000A800BE0163280F303E05A2000A302202031C5D
:1000B8005E285F2863283E08F039103EBE002430D1
:1000C8003D02031C682869286B28BD0178280F3079
:1000D8003D05A2000A302202031C732874287828E0
:1000E8003D08F039103EBD0032303C02031C7D282B
:1000F8007E288028BC018D280F303C05A2000A30DC
:100108002202031C882889288D283C08F039103ED3
:10011800BC0013303B02031C922893289528BB018E
:10012800A2280F303B05A2000A302202031C9D289A
:100138009E28A2283B08F039103EBB009A303A02AC
:10014800031CA728A828AA28BA01B7280F303A05FF
:10015800A2000A302202031CB228B328B7283A08A2
:10016800F039103EBA00760877040319BC28BD2878
:10017800122A0A128A155A260A128A11D0308312B4
:100188000313A0000030A1000A128A1575260A126E
:100198008A11003083120313A000A1000A128A15E5
:1001A80075260A128A11831203133F08A200A301BD
:1001B8002208A0002308A1000A128A1575260A122F
:1001C8008A110A128A1563260A128A110D308312BF
:1001D8000313A300FB30A200A20BF028A30BF02806
:1001E8000A128A155A260A128A11D030831203136A
:1001F800A0000030A1000A128A1575260A128A1179
:10020800013083120313A0000030A1000A128A15DE
:1002180075260A128A11831203133E08A200A3014D
:100228002208A0002308A1000A128A1575260A12BE
:100238008A110A128A1563260A128A110D3083124E
:100248000313A300FB30A200A20B2829A30B282923
:100258000A128A155A260A128A11D03083120313F9
:10026800A0000030A1000A128A1575260A128A1108
:10027800023083120313A0000030A1000A128A156D
:1002880075260A128A11831203133D08A200A301DE
:100298002208A0002308A1000A128A1575260A124E
:1002A8008A110A128A1563260A128A110D308312DE
:1002B8000313A300FB30A200A20B6029A30B602943
:1002C8000A128A155A260A128A11D0308312031389
:1002D800A0000030A1000A128A1575260A128A1198
:1002E800043083120313A0000030A1000A128A15FB
:1002F80075260A128A11831203133C08A200A3016F
:100308002208A0002308A1000A128A1575260A12DD
:100318008A110A128A1563260A128A110D3083126D
:100328000313A300FB30A200A20B9829A30B982962
:100338000A128A155A260A128A11D0308312031318
:10034800A0000030A1000A128A1575260A128A1127
:10035800053083120313A0000030A1000A128A1589
:1003680075260A128A11831203133B08A200A301FF
:100378002208A0002308A1000A128A1575260A126D
:100388008A110A128A1563260A128A110D308312FD
:100398000313A300FB30A200A20BD029A30BD02982
:1003A8000A128A155A260A128A11D03083120313A8
:1003B800A0000030A1000A128A1575260A128A11B7
:1003C800063083120313A0000030A1000A128A1518
:1003D80075260A128A11831203133A08A200A30190
:1003E8002208A0002308A1000A128A1575260A12FD
:1003F8008A110A128A1563260A128A110D3083128D
:100408000313A300FB30A200A20B082AA30B082A9F
:1004180083120313B801B901F601F70108000A12A3
:100428008A155A260A128A11D03083120313A000A3
:100438000030A1000A128A1575260A128A110030A6
:1004480083120313A000A1000A128A1575260A1246
:100458008A110A128A156C260A128A11D13083125F
:100468000313A0000030A1000A128A1575260A128B
:100478008A11003083120313A000A1000A128A1502
:1004880015270A128A11831203132008BF000A12C3
:100498008A1563260A128A110D3083120313A700E6
:1004A800FB30A600A60B562AA70B562A0A128A1555
:1004B8005A260A128A11D03083120313A000003082
:1004C800A1000A128A1575260A128A1101308312B0
:1004D8000313A0000030A1000A128A1575260A121B
:1004E8008A110A128A156C260A128A11D1308312CF
:1004F8000313A0000030A1000A128A1575260A12FB
:100508008A11003083120313A000A1000A128A1571
:1005180015270A128A11831203132008BE000A1233
:100528008A1563260A128A110D3083120313A70055
:10053800FB30A600A60B9E2AA70B9E2A0A128A1534
:100548005A260A128A11D03083120313A0000030F1
:10055800A1000A128A1575260A128A11023083121E
:100568000313A0000030A1000A128A1575260A128A
:100578008A110A128A156C260A128A11D13083123E
:100588000313A0000030A1000A128A1575260A126A
:100598008A11003083120313A000A1000A128A15E1
:1005A80015270A128A11831203132008BD000A12A4
:1005B8008A1563260A128A110D3083120313A700C5
:1005C800FB30A600A60BE62AA70BE62A0A128A1514
:1005D8005A260A128A11D03083120313A000003061
:1005E800A1000A128A1575260A128A11043083128C
:1005F8000313A0000030A1000A128A1575260A12FA
:100608008A110A128A156C260A128A11D1308312AD
:100618000313A0000030A1000A128A1575260A12D9
:100628008A11003083120313A000A1000A128A1550
:1006380015270A128A11831203132008BC000A1214
:100648008A1563260A128A110D3083120313A70034
:10065800FB30A600A60B2E2BA70B2E2B0A128A15F1
:100668005A260A128A11D03083120313A0000030D0
:10067800A1000A128A1575260A128A1105308312FA
:100688000313A0000030A1000A128A1575260A1269
:100698008A110A128A156C260A128A11D13083121D
:1006A8000313A0000030A1000A128A1575260A1249
:1006B8008A11003083120313A000A1000A128A15C0
:1006C80015270A128A11831203132008BB000A1285
:1006D8008A1563260A128A110D3083120313A700A4
:1006E800FB30A600A60B762BA70B762B0A128A15D1
:1006F8005A260A128A11D03083120313A000003040
:10070800A1000A128A1575260A128A110630831268
:100718000313A0000030A1000A128A1575260A12D8
:100728008A110A128A156C260A128A11D13083128C
:100738000313A0000030A1000A128A1575260A12B8
:100748008A11003083120313A000A1000A128A152F
:1007580015270A128A11831203132008BA000A12F5
:100768008A1563260A128A110D3083120313A70013
:10077800FB30A600A60BBE2BA70BBE2B08008312CE
:100788000313A401A40A01300A128A1142270A128B
:100798008A11831203133D08AF0004300310AF0C15
:1007A800FF3E031DD22B2F080F39303E0A128A153F
:1007B80047270A128A11831203133D080F39303E66
:1007C8000A128A1547270A128A113A300A128A151C
:1007D80047270A128A11831203133E08AF00043018
:1007E8000310AF0CFF3E031DF42B2F080F39303ECA
:1007F8000A128A1547270A128A11831203133E0820
:100808000F39303E0A128A1547270A128A113A30E0
:100818000A128A1547270A128A11831203133F08FE
:10082800AF0004300310AF0CFF3E031D162C2F0839
:100838000F39303E0A128A1547270A128A11831285
:1008480003133F080F39303E0A128A1547270A1248
:100858008A1183120313A401A40A02300A128A110E
:1008680042270A128A11831203133C08AF0004308E
:100878000310AF0CFF3E031D3C2C2F080F39303EF0
:100888000A128A1547270A128A11831203133C0891
:100898000F39303E0A128A1547270A128A112F305B
:1008A8000A128A1547270A128A11831203133B0872
:1008B800AF0004300310AF0CFF3E031D5E2C2F0861
:1008C8000F39303E0A128A1547270A128A118312F5
:1008D80003133B080F39303E0A128A1547270A12BC
:1008E8008A112F300A128A1547270A128A11831291
:1008F80003133A08AF0004300310AF0CFF3E031D8A
:10090800802C2F080F39303E0A128A1547270A1201
:100918008A11831203133A080F39303E0A128A15D6
:1009280047270A128A11413083120313A80040088E
:100938000A128A118A260A128A110D3083120313A9
:10094800A40001300A128A1142270A128A11413082
:1009580083120313A5000030A6000A128A15BA27CD
:100968000A128A11013083120313A5008030A600F1
:100978000A128A15BA270A128A1108000B1CC52CFC
:10098800C62C4C2D302D0130FF007F08BF074B2DA2
:100998000130FF007F08BE074B2D0130FF007F08A4
:1009A800BD074B2D0430F8004B2D0130FF007F08A8
:1009B800BC074B2D0130FF007F08BB074B2D0130D2
:1009C800FF007F08BA074B2D7808F000F101710885
:1009D800003A0319F02C4B2D7008003A0319C72C64
:1009E800013A0319CC2C033A0319D12C013A031903
:1009F800D62C073A0319D92C013A0319DE2C033AED
:100A08000319E32C4B2D0130FF007F08F8074B2D0D
:100A18000130F8024B2D0130B8000030B900F80160
:100A28005530BF005930BE002330BD003130BC0006
:100A38001230BB002230BA004B2D38083904031D90
:100A4800262D282D0130292D0030F000F1017008E5
:100A5800F6007108F7004B2D831203130608F00007
:100A6800F1017108003A03193A2D4B2D70080F3A1D
:100A78000319212D183A03190F2D0C3A03190C2DBF
:100A8800063A0319072D033A0319E82C4B2D0B10CE
:100A98007508FF0074088A0073088400720E8300CA
:100AA800FE0E7E0E090083120313A501A11F5D2D02
:100AB8005E2D652DA009A109A00A0319A10AA501A7
:100AC800A50AA31F682D692D722DA209A309A20AE0
:100AD8000319A30A0130FF007F08A506A601A70194
:100AE800200821040319792D7A2DB12DA401A40A17
:100AF800882D01300310A00DA10DFF3E031D7E2D92
:100B08000130FF007F08A407A11F8B2D8C2D7D2DA0
:100B180001300310A60DA70DFF3E031D8D2D2108E2
:100B28002302031D992D20082202031C9C2D9D2DB4
:100B3800A42D2008A2022108031CA303A302261443
:100B480001300310A10CA00CFF3E031DA52D0130A0
:100B5800A402031DB02DB12D8C2D25080319B52D28
:100B6800B62DBB2DA609A709A60A0319A70A2708A7
:100B7800A1002608A0000800003083120313AC006F
:100B88000030AB000030AA000030A900230822047E
:100B9800210420040319D12DD22D1F2EAD01AD0A39
:100BA800E22D0130A8000310A00DA10DA20DA30D88
:100BB800A80BD72D0130FF007F08AD07A31FE52D37
:100BC800E62DD52D0130A8000310A90DAA0DAB0DF7
:100BD800AC0DA80BE82D23082702031DFD2D2208C4
:100BE8002602031DFD2D21082502031DFD2D2008C9
:100BF8002402031C002E012E102E2008A402210816
:100C0800031C210FA5022208031C220FA602230899
:100C1800031C230FA702291401300310A30CA20CF4
:100C2800A10CA00CFF3E031D112E0130AD02031DC7
:100C38001E2E1F2EE62D2C08A3002B08A2002A0822
:100C4800A1002908A000080000300A128A15C5264C
:100C58000A128A11343083120313A500F130A4005C
:100C6800A40B342EA50B342E03300A128A158C26B9
:100C78000A128A110D3083120313A500FB30A40059
:100C8800A40B442EA50B442E03300A128A158C2679
:100C98000A128A111D3083120313A5009030A40094
:100CA800A40B542EA50B542E000003300A128A15EB
:100CB8008C260A128A1102300A128A158C260A1208
:100CC8008A1102300A128A158C260A128A110830F3
:100CD8000A128A158C260A128A1100300A128A15FD
:100CE8008C260A128A110C300A128A158C260A12CE
:100CF8008A1100300A128A158C260A128A110630C7
:100D08000A128A158C260A128A1108008312031304
:100D1800AD000A30A0000030A1002D08A900AA01EA
:100D28002908A2002A08A3000A128A1157250A12C4
:100D38008A11831203132008AE000A30A000003085
:100D4800A1002D08A900AA012908A2002A08A300C9
:100D58000A128A11E7260A128A118312031320083D
:100D6800AC000A30A0000030A1002E08A900AA019A
:100D78002908A2002A08A3000A128A1157250A1274
:100D88008A110A3083120313A0000030A1002E0834
:100D9800A900AA012908A2002A08A3000A128A1198
:100DA800E7260A128A11831203132008AB00280AC7
:100DB80084002C08303E83138000280884002B0808
:100DC800303E8000080083120313A501A31FED2EF7
:100DD800EE2EF52EA209A309A20A0319A30AA5015A
:100DE800A50AA11FF82EF92EFE2EA009A109A00A16
:100DF8000319A10A200821040319032F042F332FF4
:100E0800A401A40A122F01300310A00DA10DFF3E6A
:100E1800031D082F0130FF007F08A407A11F152F0D
:100E2800162F072F21082302031D1C2F200822023A
:100E3800031C1F2F202F262F2008A2022108031C85
:100E4800A303A30201300310A10CA00CFF3E031D55
:100E5800272F0130A402031D322F332F162F250808
:100E68000319372F382F3D2FA209A309A20A031906
:100E7800A30A2308A1002208A00008008312031374
:100E8800A6002603031D492F4A2F692F24087F3EF9
:100E9800A9002908A50004300310A50CFF3E031D76
:100EA800502F2508A70029080F39A80027080A127B
:100EB8008A158C260A128A118312031328080A122B
:100EC8008A158C260A128A118D2F02302606031DD8
:100ED8006E2F6F2F8D2F2408BF3EA9002908A5006B
:100EE80004300310A50CFF3E031D752F2508A7002D
:100EF80029080F39A80027080A128A158C260A1211
:100F08008A118312031328080A128A158C260A12DA
:100F18008A1108000A128A15E5260A128A110A128D
:100F28008A11D5270A128A111A3083120313B700BF
:100F3800F730B600B60B9E2FB70B9E2FA32F831248
:100F48000313380839040319AA2FAB2FB12F0A123B
:100F58008A1128200A128A11B62F0A128A1113221E
:100F68000A128A111A3083120313B700F730B60039
:100F7800B60BBC2FB70BBC2FC12F0A128A11C32383
:100F88000A128A111A3083120313B700F730B60019
:100F9800B60BCC2FB70BCC2FD12F932F0A128A1157
:100FA80010280A128A155A260A128A1151308312F9
:100FB8000313A0000030A1000A128A1575260A1230
:100FC8008A11003083120313A000A1000A128A15A7
:100FD80015270A128A11831203132008C0000A1267
:0A0FE8008A1563260A128A11080018
:10100000FF1B0A2883137F1883170008840A03191B
:10101000FF0A080008308A000408840A82070034A6
:06102000273443340034C4
:101CB4000A128A157F260A128A1583160313111431
:101CC40008000A128A157F260A128A15831603133E
:101CD400111508000A128A157F260A128A1583161E
:101CE4000313911408000A128A157F260A128A1512
:101CF4008312031320089300080083160313141996
:101D0400842E852E7F2E11081F39031D8A2E8B2EBB
:101D14007F2E080083120313A300081123080A125C
:101D24008A15C5260A128A158312031388150B30E7
:101D340083120313A2006130A100A10B9F2EA20BFA
:101D44009F2EA42E831203138811080083120313F9
:101D5400A0002008FF007F08831603138604811364
:101D6400831203132008FF007F08831603139504CE
:101D74008B15831203132008FF007F0883160313B7
:101D840096048B17080083120313A000201CCB2E8B
:101D9400CC2ECE2E0816CF2E0812A01CD22ED32E57
:101DA400D52E8816D62E8812201DD92EDA2EDC2E9A
:101DB4000817DD2E0813A01DE02EE12EE32E881750
:101DC400E42E8813080083160317880189018316FB
:101DD40003138601831203138601831603138801F8
:101DE4008312031388017030831603138F040F14B6
:101DF400003083120313B1000130B0008630AF000D
:101E0400A030AE000A128A1580270A128A150A1217
:101E14008A1128260A128A151F300A128A15A82642
:101E24000A128A1508000A128A157F260A128A15D0
:101E34008316031391150A128A157F260A128A152E
:101E4400831203131308A200A3012208A400230889
:101E5400A5000A128A157F260A128A158312031313
:101E640020032104031D372F382F3C2F831603131F
:101E740091123F2F83160313911611168312031325
:101E84002508A1002408A000080083120313A4005D
:101E940024080F39A2002408F039A30008152308E8
:101EA400A10004300310A10CFF3E031D542F210890
:101EB4000A128A15C5260A128A1583120313881575
:101EC400193083120313A100A10B662F692F83120B
:101ED4000313881122080A128A15C5260A128A15C4
:101EE400831203138815193083120313A100A10B65
:101EF400792F7C2F83120313881108002830831252
:101F040003139400831603139101831203132E0801
:101F1400B2002F08B3003008B4003108B500023015
:101F24000310B20DB30DB40DB50DFF3E031D922F7A
:101F34003508A3003408A2003308A1003208A00029
:101F44000030A7007A30A6001230A5000030A400AB
:101F54000A128A11C0250A128A1583120313200853
:101F6400FF3E831603139300940187150716080098
:101F740083120313AA01AB01E32F2A082507A80043
:101F84002608A7000318A70AAA1FC92FA7038312AC
:101F940003132708A9002908FF00280884000A124F
:101FA4008A1500200A128A150A128A1547270A126E
:101FB4008A15013083120313AA070318AB0A0030F1
:101FC400AB072A082507A8002608A7000318A70AB4
:101FD400AA1FED2FA703831203132708A9002908BA
:101FE400FF00280884000A128A1500200A128A15A4
:0C1FF400003A031DFE2FFF2FBF2F080036
:04400E00D420FF3F7C
:00000001FF
