:060000000A128A1110280B
:10000800FE00030EF2000408F3000A08F4007F085B
:10001800F5000A128A11C22C0A128A111328F60155
:10002800F701F80183120313BA01BB01BC01BD013A
:10003800BE01BF01C001C101C201C301C401C501A4
:1000480083010A128A118E2F780A031D2C282D2865
:1000580030280630F800372807307802031C352886
:1000680036283728F8015A30831203134102031C3B
:100078003E283F284128C1014E280F304105A200E3
:100088000A302202031C49284A284E284108F03920
:10009800103EC1005A304002031C532854285628E9
:1000A800C00163280F304005A2000A302202031C59
:1000B8005E285F2863284008F039103EC0002430CD
:1000C8003F02031C682869286B28BF0178280F3075
:1000D8003F05A2000A302202031C732874287828DE
:1000E8003F08F039103EBF0032303E02031C7D2825
:1000F8007E288028BE018D280F303E05A2000A30D8
:100108002202031C882889288D283E08F039103ED1
:10011800BE0013303D02031C922893289528BD0188
:10012800A2280F303D05A2000A302202031C9D2898
:100138009E28A2283D08F039103EBD009A303C02A6
:10014800031CA728A828AA28BC01B7280F303C05FB
:10015800A2000A302202031CB228B328B7283C08A0
:10016800F039103EBC00760877040319BC28BD2876
:10017800122A0A128A154F260A128A11D0308312BF
:100188000313A0000030A1000A128A156A260A1279
:100198008A11003083120313A000A1000A128A15E5
:1001A8006A260A128A11831203134108A200A301C6
:1001B8002208A0002308A1000A128A156A260A123A
:1001C8008A110A128A1558260A128A110D308312CA
:1001D8000313A300FB30A200A20BF028A30BF02806
:1001E8000A128A154F260A128A11D0308312031375
:1001F800A0000030A1000A128A156A260A128A1184
:10020800013083120313A0000030A1000A128A15DE
:100218006A260A128A11831203134008A200A30156
:100228002208A0002308A1000A128A156A260A12C9
:100238008A110A128A1558260A128A110D30831259
:100248000313A300FB30A200A20B2829A30B282923
:100258000A128A154F260A128A11D0308312031304
:10026800A0000030A1000A128A156A260A128A1113
:10027800023083120313A0000030A1000A128A156D
:100288006A260A128A11831203133F08A200A301E7
:100298002208A0002308A1000A128A156A260A1259
:1002A8008A110A128A1558260A128A110D308312E9
:1002B8000313A300FB30A200A20B6029A30B602943
:1002C8000A128A154F260A128A11D0308312031394
:1002D800A0000030A1000A128A156A260A128A11A3
:1002E800043083120313A0000030A1000A128A15FB
:1002F8006A260A128A11831203133E08A200A30178
:100308002208A0002308A1000A128A156A260A12E8
:100318008A110A128A1558260A128A110D30831278
:100328000313A300FB30A200A20B9829A30B982962
:100338000A128A154F260A128A11D0308312031323
:10034800A0000030A1000A128A156A260A128A1132
:10035800053083120313A0000030A1000A128A1589
:100368006A260A128A11831203133D08A200A30108
:100378002208A0002308A1000A128A156A260A1278
:100388008A110A128A1558260A128A110D30831208
:100398000313A300FB30A200A20BD029A30BD02982
:1003A8000A128A154F260A128A11D03083120313B3
:1003B800A0000030A1000A128A156A260A128A11C2
:1003C800063083120313A0000030A1000A128A1518
:1003D8006A260A128A11831203133C08A200A30199
:1003E8002208A0002308A1000A128A156A260A1208
:1003F8008A110A128A1558260A128A110D30831298
:100408000313A300FB30A200A20B082AA30B082A9F
:1004180083120313BA01BB01F601F70108000A129F
:100428008A154F260A128A11D03083120313A000AE
:100438000030A1000A128A156A260A128A110030B1
:1004480083120313A000A1000A128A156A260A1251
:100458008A110A128A1561260A128A11D13083126A
:100468000313A0000030A1000A128A156A260A1296
:100478008A11003083120313A000A1000A128A1502
:10048800DA260A128A11831203132008C1000A12FD
:100498008A1558260A128A110D3083120313A700F1
:1004A800FB30A600A60B562AA70B562A0A128A1555
:1004B8004F260A128A11D03083120313A00000308D
:1004C800A1000A128A156A260A128A1101308312BB
:1004D8000313A0000030A1000A128A156A260A1226
:1004E8008A110A128A1561260A128A11D1308312DA
:1004F8000313A0000030A1000A128A156A260A1206
:100508008A11003083120313A000A1000A128A1571
:10051800DA260A128A11831203132008C0000A126D
:100528008A1558260A128A110D3083120313A70060
:10053800FB30A600A60B9E2AA70B9E2A0A128A1534
:100548004F260A128A11D03083120313A0000030FC
:10055800A1000A128A156A260A128A110230831229
:100568000313A0000030A1000A128A156A260A1295
:100578008A110A128A1561260A128A11D130831249
:100588000313A0000030A1000A128A156A260A1275
:100598008A11003083120313A000A1000A128A15E1
:1005A800DA260A128A11831203132008BF000A12DE
:1005B8008A1558260A128A110D3083120313A700D0
:1005C800FB30A600A60BE62AA70BE62A0A128A1514
:1005D8004F260A128A11D03083120313A00000306C
:1005E800A1000A128A156A260A128A110430831297
:1005F8000313A0000030A1000A128A156A260A1205
:100608008A110A128A1561260A128A11D1308312B8
:100618000313A0000030A1000A128A156A260A12E4
:100628008A11003083120313A000A1000A128A1550
:10063800DA260A128A11831203132008BE000A124E
:100648008A1558260A128A110D3083120313A7003F
:10065800FB30A600A60B2E2BA70B2E2B0A128A15F1
:100668004F260A128A11D03083120313A0000030DB
:10067800A1000A128A156A260A128A110530831205
:100688000313A0000030A1000A128A156A260A1274
:100698008A110A128A1561260A128A11D130831228
:1006A8000313A0000030A1000A128A156A260A1254
:1006B8008A11003083120313A000A1000A128A15C0
:1006C800DA260A128A11831203132008BD000A12BF
:1006D8008A1558260A128A110D3083120313A700AF
:1006E800FB30A600A60B762BA70B762B0A128A15D1
:1006F8004F260A128A11D03083120313A00000304B
:10070800A1000A128A156A260A128A110630831273
:100718000313A0000030A1000A128A156A260A12E3
:100728008A110A128A1561260A128A11D130831297
:100738000313A0000030A1000A128A156A260A12C3
:100748008A11003083120313A000A1000A128A152F
:10075800DA260A128A11831203132008BC000A122F
:100768008A1558260A128A110D3083120313A7001E
:10077800FB30A600A60BBE2BA70BBE2B08008312CE
:100788000313A401A40A01300A128A1142270A128B
:100798008A11831203133F08AF0004300310AF0C13
:1007A800FF3E031DD22B2F080F39303E0A128A153F
:1007B8000C270A128A11831203133F080F39303E9F
:1007C8000A128A150C270A128A113A300A128A1557
:1007D8000C270A128A11831203134008AF00043051
:1007E8000310AF0CFF3E031DF42B2F080F39303ECA
:1007F8000A128A150C270A128A1183120313400859
:100808000F39303E0A128A150C270A128A113A301B
:100818000A128A150C270A128A1183120313410837
:10082800AF0004300310AF0CFF3E031D162C2F0839
:100838000F39303E0A128A150C270A128A118312C0
:10084800031341080F39303E0A128A150C270A1281
:100858008A1183120313A401A40A02300A128A110E
:1008680042270A128A11831203133E08AF0004308C
:100878000310AF0CFF3E031D3C2C2F080F39303EF0
:100888000A128A150C270A128A11831203133E08CA
:100898000F39303E0A128A150C270A128A112F3096
:1008A8000A128A150C270A128A11831203133D08AB
:1008B800AF0004300310AF0CFF3E031D5E2C2F0861
:1008C8000F39303E0A128A150C270A128A11831230
:1008D80003133D080F39303E0A128A150C270A12F5
:1008E8008A112F300A128A150C270A128A118312CC
:1008F80003133C08AF0004300310AF0CFF3E031D88
:10090800802C2F080F39303E0A128A150C270A123C
:100918008A11831203133C080F39303E0A128A15D4
:100928000C270A128A11433083120313A8004208C5
:100938000A128A118A260A128A110D3083120313A9
:10094800A40001300A128A1142270A128A11433080
:1009580083120313A5000030A6000A128A15BA27CD
:100968000A128A11013083120313A5008030A600F1
:100978000A128A15BA270A128A1108000B1CC52CFC
:10098800C62C4C2D302D0130FF007F08C1074B2DA0
:100998000130FF007F08C0074B2D0130FF007F08A2
:1009A800BF074B2D0430F8004B2D0130FF007F08A6
:1009B800BE074B2D0130FF007F08BD074B2D0130CE
:1009C800FF007F08BC074B2D7808F000F101710883
:1009D800003A0319F02C4B2D7008003A0319C72C64
:1009E800013A0319CC2C033A0319D12C013A031903
:1009F800D62C073A0319D92C013A0319DE2C033AED
:100A08000319E32C4B2D0130FF007F08F8074B2D0D
:100A18000130F8024B2D0130BA000030BB00F8015C
:100A28005530C1005930C0002330BF003130BE00FE
:100A38001230BD002230BC004B2D3A083B04031D88
:100A4800262D282D0130292D0030F000F1017008E5
:100A5800F6007108F7004B2D831203130608F00007
:100A6800F1017108003A03193A2D4B2D70080F3A1D
:100A78000319212D183A03190F2D0C3A03190C2DBF
:100A8800063A0319072D033A0319E82C4B2D0B10CE
:100A98007508FF0074088A0073088400720E8300CA
:100AA800FE0E7E0E090083120313A501A11F5D2D02
:100AB8005E2D652DA009A109A00A0319A10AA501A7
:100AC800A50AA31F682D692D722DA209A309A20AE0
:100AD8000319A30A0130FF007F08A506A601A70194
:100AE800200821040319792D7A2DB12DA401A40A17
:100AF800882D01300310A00DA10DFF3E031D7E2D92
:100B08000130FF007F08A407A11F8B2D8C2D7D2DA0
:100B180001300310A60DA70DFF3E031D8D2D2108E2
:100B28002302031D992D20082202031C9C2D9D2DB4
:100B3800A42D2008A2022108031CA303A302261443
:100B480001300310A10CA00CFF3E031DA52D0130A0
:100B5800A402031DB02DB12D8C2D25080319B52D28
:100B6800B62DBB2DA609A709A60A0319A70A2708A7
:100B7800A1002608A0000800003083120313AC006F
:100B88000030AB000030AA000030A900230822047E
:100B9800210420040319D12DD22D1F2EAD01AD0A39
:100BA800E22D0130A8000310A00DA10DA20DA30D88
:100BB800A80BD72D0130FF007F08AD07A31FE52D37
:100BC800E62DD52D0130A8000310A90DAA0DAB0DF7
:100BD800AC0DA80BE82D23082702031DFD2D2208C4
:100BE8002602031DFD2D21082502031DFD2D2008C9
:100BF8002402031C002E012E102E2008A402210816
:100C0800031C210FA5022208031C220FA602230899
:100C1800031C230FA702291401300310A30CA20CF4
:100C2800A10CA00CFF3E031D112E0130AD02031DC7
:100C38001E2E1F2EE62D2C08A3002B08A2002A0822
:100C4800A1002908A000080000300A128A15BA2657
:100C58000A128A11343083120313A500F130A4005C
:100C6800A40B342EA50B342E03300A128A158126C4
:100C78000A128A110D3083120313A500FB30A40059
:100C8800A40B442EA50B442E03300A128A15812684
:100C98000A128A111D3083120313A5009030A40094
:100CA800A40B542EA50B542E000003300A128A15EB
:100CB80081260A128A1102300A128A1581260A121E
:100CC8008A1102300A128A1581260A128A110830FE
:100CD8000A128A1581260A128A1100300A128A1508
:100CE80081260A128A110C300A128A1581260A12E4
:100CF8008A1100300A128A1581260A128A110630D2
:100D08000A128A1581260A128A110800831203130F
:100D1800AD000A30A0000030A1002D08A900AA01EA
:100D28002908A2002A08A3000A128A1157250A12C4
:100D38008A11831203132008AE000A30A000003085
:100D4800A1002D08A900AA012908A2002A08A300C9
:100D58000A128A11E7260A128A118312031320083D
:100D6800AC000A30A0000030A1002E08A900AA019A
:100D78002908A2002A08A3000A128A1157250A1274
:100D88008A110A3083120313A0000030A1002E0834
:100D9800A900AA012908A2002A08A3000A128A1198
:100DA800E7260A128A11831203132008AB00280AC7
:100DB80084002C08303E83138000280884002B0808
:100DC800303E8000080083120313A501A31FED2EF7
:100DD800EE2EF52EA209A309A20A0319A30AA5015A
:100DE800A50AA11FF82EF92EFE2EA009A109A00A16
:100DF8000319A10A200821040319032F042F332FF4
:100E0800A401A40A122F01300310A00DA10DFF3E6A
:100E1800031D082F0130FF007F08A407A11F152F0D
:100E2800162F072F21082302031D1C2F200822023A
:100E3800031C1F2F202F262F2008A2022108031C85
:100E4800A303A30201300310A10CA00CFF3E031D55
:100E5800272F0130A402031D322F332F162F250808
:100E68000319372F382F3D2FA209A309A20A031906
:100E7800A30A2308A1002208A00008008312031374
:100E8800A6002603031D492F4A2F692F24087F3EF9
:100E9800A9002908A50004300310A50CFF3E031D76
:100EA800502F2508A70029080F39A80027080A127B
:100EB8008A1581260A128A118312031328080A1236
:100EC8008A1581260A128A118D2F02302606031DE3
:100ED8006E2F6F2F8D2F2408BF3EA9002908A5006B
:100EE80004300310A50CFF3E031D752F2508A7002D
:100EF80029080F39A80027080A128A1581260A121C
:100F08008A118312031328080A128A1581260A12E5
:100F18008A1108000A128A157F270A128A110A12F2
:100F28008A11D5270A128A111A3083120313B900BD
:100F3800F730B800B80B9E2FB90B9E2FA32F831242
:100F480003133A083B040319AA2FAB2FB12F0A1237
:100F58008A1128200A128A11B62F0A128A1113221E
:100F68000A128A111A3083120313B900F730B80035
:100F7800B80BBC2FB90BBC2FC12F0A128A11C3237F
:100F88000A128A111A3083120313B900F730B80015
:100F9800B80BCC2FB90BCC2FD12F932F0A128A1153
:100FA80010280A128A154F260A128A115130831204
:100FB8000313A0000030A1000A128A156A260A123B
:100FC8008A11003083120313A000A1000A128A15A7
:100FD800DA260A128A11831203132008C2000A12A1
:0A0FE8008A1558260A128A11080023
:10100000FF1B0A2883137F1883170008840A03191B
:10101000FF0A080008308A000408840A82070034A6
:06102000273443340034C4
:101C9E000A128A1574260A128A1583160313111452
:101CAE0008000A128A1574260A128A15831603135F
:101CBE00111508000A128A1574260A128A1583163F
:101CCE000313911408000A128A1574260A128A1533
:101CDE0083120313200893000800831603131419AC
:101CEE00792E7A2E742E11081F39031D7F2E802E09
:101CFE00742E080083120313A300081123080A127E
:101D0E008A15BA260A128A158312031388150B3008
:101D1E0083120313A2006130A100A10B942EA20B1B
:101D2E00942E992E83120313881108008312031325
:101D3E00A0002008FF007F0883160313860481137A
:101D4E00831203132008FF007F08831603139504E4
:101D5E008B15831203132008FF007F0883160313CD
:101D6E0096048B17080083120313A000201CC02EAC
:101D7E00C12EC32E0816C42E0812A01CC72EC82EA4
:101D8E00CA2E8816CB2E8812201DCE2ECF2ED12EE7
:101D9E000817D22E0813A01DD52ED62ED82E881792
:101DAE00D92E881308000A128A1574260A128A156B
:101DBE008316031391150A128A1574260A128A15B0
:101DCE00831203131308A200A3012208A400230800
:101DDE00A5000A128A1574260A128A158312031395
:101DEE0020032104031DFC2EFD2E012F8316031349
:101DFE009112042F831603139116111683120313D7
:101E0E002508A1002408A000080083120313A400D3
:101E1E0024080F39A2002408F039A300081523085E
:101E2E00A10004300310A10CFF3E031D192F210841
:101E3E000A128A15BA260A128A15831203138815F6
:101E4E00193083120313A100A10B2B2F2E2F8312F7
:101E5E000313881122080A128A15BA260A128A1545
:101E6E00831203138815193083120313A100A10BDB
:101E7E003E2F412F8312031388110800283083123E
:101E8E0003139400831603139101831203132E0878
:101E9E00B2002F08B3003008B4003108B50002308C
:101EAE000310B20DB30DB40DB50DFF3E031D572F2C
:101EBE003508A3003408A2003308A1003208A000A0
:101ECE000030A7007A30A6001230A5000030A40022
:101EDE000A128A11C0250A128A15831203132008CA
:101EEE00FF3E83160313930094018715071608000F
:101EFE008316031788018901831603138601831243
:101F0E0003138601831603138801831203138801BA
:101F1E007030831603138F040F14003083120313D3
:101F2E00B1000130B0008630AF00A030AE000A1212
:101F3E008A1545270A128A150A128A1128260A12AC
:101F4E008A151A3083120313B700F730B600B60B9A
:101F5E00AE2FB70BAE2FB32F1F300A128A159D2648
:101F6E000A128A15080083120313AA01AB01E32F8C
:101F7E002A082507A8002608A7000318A70AAA1FE3
:101F8E00C92FA703831203132708A9002908FF00EE
:101F9E00280884000A128A1500200A128A150A12CD
:101FAE008A150C270A128A15013083120313AA0709
:101FBE000318AB0A0030AB072A082507A80026082D
:101FCE00A7000318A70AAA1FED2FA7038312031356
:101FDE002708A9002908FF00280884000A128A157C
:101FEE0000200A128A15003A031DFE2FFF2FBF2F65
:021FFE000800D9
:04400E00D420FF3F7C
:00000001FF
