:060000000A128A110C280F
:10000800FE00030EF0000A08F1000A128A116029A6
:100018000A128A110F2883010A128A11B3280030A4
:1000280083120313A3000030A2000030A1000030A7
:10003800A000750874047304720403192428252881
:100048007228A401A40A35280130FA000310F20D21
:10005800F30DF40DF50DFA0B2A280130FF007F0887
:10006800A407F51F3828392828280130FA0003107A
:10007800A00DA10DA20DA30DFA0B3B28750879025E
:10008800031D502874087802031D5028730877024E
:10009800031D502872087602031C5328542863282D
:1000A8007208F6027308031C730FF7027408031C26
:1000B800740FF8027508031C750FF902201401303B
:1000C8000310F50CF40CF30CF20CFF3E031D64282E
:1000D8000130A402031D7128722839282308F5006D
:1000E8002208F4002108F3002008F2000800283054
:1000F80083120313940083160313910183120313CD
:100108002508A9002608AA002708AB002808AC0083
:1001180002300310A90DAA0DAB0DAC0DFF3E031D57
:100128008D282C08F5002B08F4002A08F30029086C
:10013800F2000030F9007A30F8001230F700003091
:10014800F6000A128A1113200A128A117208FF3E59
:1001580083160313930094018715071608000A12E3
:100168008A1118210A128A110A128A1157210A12B1
:100178008A115130F2000030F3000A128A1144212A
:100188000A128A110030F200F3000A128A11EA20DA
:100198000A128A1172088312031385000A128A113F
:1001A8004E210A128A11033083120313AF0008305C
:1001B800AE007630AD00AD0BDF28AE0BDF28AF0BFD
:1001C800DF280000B8280A128A110C280A128A119E
:1001D80037210A128A118316031391150A128A11FC
:1001E80037210A128A11831203131308F400F50148
:1001F8007408F6007508F7000A128A1137210A12E6
:100208008A1172037304031D0A290B290F29831607
:1002180003139112122983160313911611167708E6
:10022800F3007608F2000800831603178801890195
:100238008316031385018312031385017030831617
:1002480003138F040F14003083120313A800013026
:10025800A7008630A600A030A5000A128A117B20CC
:100268000A128A1108008316031314193C293D2920
:10027800372911081F39031D422943293729080046
:100288000A128A1137210A128A117208831203137B
:10029800930008000A128A1137210A128A1183165C
:1002A8000313111508000A128A1137210A128A113C
:1002B800831603131114080071088A00700E830056
:0602C800FE0E7E0E09008F
:04400E00D420FF3F7C
:00000001FF
