:060000000A128A110C280F
:10000800FE00030EF1000A08F2000A128A117E2887
:100018000A128A110F28F901FA0183010A128A11BA
:10002800632983120313A501A11F1B281C28232859
:10003800A009A109A00A0319A10AA501A50AA31FDD
:10004800262827283028A209A309A20A0319A30AE7
:100058000130FF007F08A506A601A701200821049A
:100068000319372838286F28A401A40A4628013024
:100078000310A00DA10DFF3E031D3C280130FF0019
:100088007F08A407A11F49284A283B2801300310EC
:10009800A60DA70DFF3E031D4B2821082302031DB3
:1000A800572820082202031C5A285B2862282008A7
:1000B800A2022108031CA303A30226140130031083
:1000C800A10CA00CFF3E031D63280130A402031DF0
:1000D8006E286F284A282508031973287428792858
:1000E800A609A709A60A0319A70A2708A10026082E
:1000F800A0000800831203138C1D83288428D428A9
:100108001412141B882889288D28941F8C288D2860
:1001180092281308FA001413941314168316031361
:10012800941A97289828B22814199B289C28B22832
:10013800831203131308FA008C1114168316031381
:10014800141CA728A828A2288312031313088800C0
:10015800A630F000F00BAE280000D128941AB5287C
:10016800B628D128141DB928BA28D1288312031318
:100178001308FA0083160313141079088312031363
:1001880093001416A630F000F00BC8280000831660
:1001980003131418D028D128CB28831203138C11E9
:1001A80072088A00710E8300FE0E7E0E0900F800A8
:1001B8007818DF28E328831603139F17E628831689
:1001C80003139F137318E928ED28831603131F16CA
:1001D800F028831603131F127318F328F7288316C1
:1001E80003139F16FA28831603139F1213293F300F
:1001F800831203139F052929831203131F083F390C
:1002080040389F002929831203131F083F3980387B
:100218009F002929C030831203139F0429297408D9
:10022800F600F7017708003A03191B2929297608EF
:10023800013A0319FB28053A031900290C3A031956
:1002480007291C3A03190E2929297508F600F60D05
:10025800F60D83121F087606C33976069F001F1411
:10026800080083120313AE0028082902A000A10188
:10027800031CA10328082E02F300F401031CF40355
:100288002A082B02F500F601031CF6030A128A114C
:10029800B6210A128A11740883120313A300730883
:1002A800A2000A128A1115200A128A118312031356
:1002B8002008AC002108AD002A082C0708000A1203
:1002C8008A118E210A128A110D3083120313B0008D
:1002D800FB30AF00AF0B6E29B00B6E2983120313EE
:1002E800A801FF30A900AA014630AB000A128A1102
:1002F800F5210A128A1174080A128A1135210A1284
:100308008A11F900790883120313880068290A12F0
:100318008A110C28FF3083160313850083120313F8
:10032800850101308316031788008901831603139A
:1003380088018312031388017030831603138F0416
:100348000F14F3010830F400F50100300A128A1185
:10035800DB200A128A1150300A128A11DB210A1294
:100368008A110800F701F801731CBB29BC29C229AE
:100378007508F7070318F80A7608F807013003101C
:10038800F50DF60DFF3E031DC32901300310F40CD3
:10039800F30CFF3E031DCA2973087404031DD529F5
:1003A800D629B8297808F4007708F3000800F30084
:1003B80073088316031393003630831203139400D3
:1003C80080308316031394000130910087150716B7
:1003D8008B170B17831203138C11831603138C15B9
:1003E8000800831203139F149F18FB29FC29F8297E
:0E03F8001E08F400831603131E08F30008000D
:04400E00D420FF3F7C
:00000001FF
