:060000000A128A110C280F
:10000800FE00030EF1000A08F2000A128A111528F0
:100018000A128A110F28F901FA0183010A128A11BA
:10002800FA28831203138C1D1A281B286B28141214
:10003800141B1F2820282428941F23282428292813
:100048001308FA0014139413141683160313941A3E
:100058002E282F2849281419322833284928831292
:1000680003131308FA008C11141683160313141CB7
:100078003E283F2839288312031313088800A63026
:10008800F000F00B452800006828941A4C284D28E9
:100098006828141D50285128682883120313130850
:1000A800FA0083160313141083120313060893002F
:1000B8001416A630F000F00B5F2800008316031317
:1000C8001418672868286228831203138C11720891
:1000D8008A00710E8300FE0E7E0E0900F800781863
:1000E80076287A28831603139F177D28831603130F
:1000F8009F13731880288428831603131F168728D4
:10010800831603131F1273188A288E288316031365
:100118009F169128831603139F12AA283F30831233
:1001280003139F05C028831203131F083F39403863
:100138009F00C028831203131F083F3980389F008F
:10014800C028C030831203139F04C0287408F60027
:10015800F7017708003A0319B228C0287608013A4F
:1001680003199228053A031997280C3A03199E286F
:100178001C3A0319A528C0287508F600F60DF60DD7
:1001880083121F087606C33976069F001F140800DD
:100198002130831603138500831203138501013070
:1001A80083160317880089018316031386018312B7
:1001B800031386018316031388018312031388012E
:1001C8007030831603138F040F14F3010830F40002
:1001D800F50100300A128A1172200A128A11503071
:1001E8000A128A1116210A128A1108000A128A11A3
:1001F800CC200A128A110D3083120313A100FB30A0
:10020800A000A00B0529A10B05290A128A1130218B
:100218000A128A117408831203138600FF280A122F
:100228008A110C28F30073088316031393003630E1
:100238008312031394008030831603139400013053
:100248009100871507168B170B17831203138C1150
:10025800831603138C150800831203139F149F1829
:100268003629372933291E08F400831603131E087C
:04027800F300080087
:04400E00D420FF3F7C
:00000001FF
